:1000000000000120410000006100000061000000CC
:1000100061000000610000006100000000000000BD
:10002000000000000000000000000000610000006F
:10003000610000000000000061000000610000009D
:100040000248002101310160FCE700BF00000020F0
:10005000FFFFFFFFFFFFFFFFFFFFFFFFFFFFFFFFB0
:10006000FEE7FFFFFFFFFFFFFFFFFFFFFFFFFFFFB9
:10007000FFFFFFFFFFFFFFFFFFFFFFFFFFFFFFFF90
:10008000FFFFFFFFFFFFFFFFFFFFFFFFFFFFFFFF80
:10009000FFFFFFFFFFFFFFFFFFFFFFFFFFFFFFFF70
:1000A000FFFFFFFFFFFFFFFFFFFFFFFFFFFFFFFF60
:1000B000FFFFFFFFFFFFFFFFFFFFFFFFFFFFFFFF50
:1000C000FFFFFFFFFFFFFFFFFFFFFFFFFFFFFFFF40
:1000D000FFFFFFFFFFFFFFFFFFFFFFFFFFFFFFFF30
:1000E000FFFFFFFFFFFFFFFFFFFFFFFFFFFFFFFF20
:1000F000FFFFFFFFFFFFFFFFFFFFFFFFFFFFFFFF10
:100100004A4C494E4B4D43502D48494C2D563100D9
:100110000001020304050607F8F9FAFBFCFDFEFFE7
:00000001FF
