:100000000000042005050000B9000000B900000050
:10001000B9000000B9000000B9000000064A516AAA
:1000200010B54B1C946AC3F30A039C421EBF034CD9
:100030005362605410BD00BF00000020E0000020AB
:1000400010B5441E14F8010F00B910BDFFF7E6FF0C
:10005000F8E770B50A250446B0FBF5F6B6FBF5F0F7
:1000600005FB10603030C0B2FFF7D8FF05FB16402B
:100070003030BDE87040C0B2FFF7D0BF044B032260
:100080001A60044B02F14142A2F590521A60704787
:10009000D4000020D8000020024B02221A60FFF793
:1000A000EDBF00BFD4000020024B01221A60FFF711
:1000B000F3BF00BFD4000020FEE77FB528B9302091
:1000C00004B0BDE87040FFF7A9BF01AB00241E4695
:1000D0000A25B0FBF5F105FB1102303203F8012BC4
:1000E0000246092A04F101040846F2D8013C305DB9
:1000F000FFF794FF002CF9D104B070BD0749013817
:1001000011F8013B10F8012F03B11AB99B1A58429C
:10011000584170479342F3D0002070478C00002074
:100120002DE9F84FDFF8D49080465B200F469246C9
:10013000D9F80040FFF772FF4FF46160B4FBF0F0B4
:100140003C25FFF786FF3A20FFF768FFB4FBF5F682
:10015000B6FBF5F005FB1060FFF77BFF3A20FFF7D9
:100160005DFF05FB1640FFF774FF2E20FFF756FFDB
:10017000C4EBC40B4FF47A736426BBFBF3F203FBAE
:1001800012BBBBFBF6F03030C0B2FFF747FF58465A
:10019000FFF75FFF0D252C20FFF740FF65434FF46D
:1001A0007A73B5FBF3F203FB1255B5FBF6F6303666
:1001B000F0B2FFF733FF2846FFF74BFF1048FFF779
:1001C0003FFF4046FFF73CFF0E48FFF739FF384638
:1001D000FFF736FF0C48FFF733FF5046FFF730FFBD
:1001E0000A48FFF72DFF2046FFF767FF01340A207A
:1001F000FFF714FFC9F80040BDE8F88FDC000020CD
:1002000024050000280500002B0500002E05000035
:1002100008B5044A04490548FFF782FF00231B6024
:10022000FFDE00BF340500004E0500005A05000047
:1002300008B50A4A0A490B48FFF772FF4FF0E0225F
:10024000D2F8143D43F00803C2F8143DBFF34F8FBA
:10025000054B0122C3F8012008BD00BF5E05000068
:100260004E0500005A0500000010002007B5064AA0
:1002700006490748FFF754FF4FF070431B6801938E
:10028000019B03B05DF804FB780500004E050000FB
:100290005A050000024B034A1A60FFF705BF00BF72
:1002A000D8000020EFBEADDE2DE9F84F744C754A42
:1002B000754E012323616361744BA261E3614FF4C6
:1002C0000063236200236362A362E362226340222D
:1002D0006663A263E3631A4623646364E2540133F2
:1002E000102BFBD16A49002311F8012B002A29D1D8
:1002F000684A69496948DFF8A881FFF711FF694A30
:1003000069496A48FFF70CFF694A67496948FFF77E
:1003100007FF694F694D3B6801333B60226CE36B1B
:100320009A4212D1664A1368002B00F08D80136840
:100330000021013B1160032B00F29C80DFE803F0F9
:100340001A829097E2540133CEE7236CF25C236C5F
:10035000013303F03F030A2A2364D8F8003001D0A8
:100360000D2A68D1002BD9D000225648EA54FFF755
:10037000C5FE08B1FFF74CFF5348FFF7BFFE28B199
:10038000FFF756FF0023C8F80030C7E74F48FFF7D4
:10039000B5FE30B14E4A40494E48FFF7C1FEADDED2
:1003A000F0E74D48FFF7AAFE10B1FFF75FFFE9E75E
:1003B0004A48FFF7A3FE38B1FFF76CFF484A3649B9
:1003C0003648FFF7ADFEDDE74648FFF797FE48B138
:1003D0004548FFF735FE3868FFF76FFE0A20FFF744
:1003E0001DFECFE72B78652B0DD16B78632B0AD1DF
:1003F000AB78682B07D1EB786F2B04D12B793A2B94
:1004000001D13A4ADBE73A48FFF778FE78B1394A3A
:10041000DFF8DCB0DFF894A04FF06409594650468D
:10042000FFF77EFEB9F10109324AF7D1AAE7324A55
:1004300019492048C5E73E2B9EBF591CEA54C8F80D
:1004400000106BE7FFF7F4FE3B68C3F31203002BC9
:100450007FF45FAF294A10491048FFF761FE58E763
:100460001B4A0D491B48FFF75BFEADDEECE7FFF7CB
:10047000FDFEE9E7224A08490E48FFF751FEE3E78F
:1004800000000020F406000048000020E0000020EA
:10049000E9060000960500004E050000A4050000D6
:1004A00088000020A8050000C6050000D105000056
:1004B000D5050000F3050000CC0000208C000020D2
:1004C000D0000020F7050000070600001706000016
:1004D000270600005A0500004D0600005B060000DC
:1004E00062060000700600007906000091000020FE
:1004F000A8060000AE060000B9060000DF060000F6
:10050000C906000008B5054A054B0021934201D3F6
:10051000FFF7CAFE43F8041BF8E700BFE00800201D
:10052000000000205D203C003E20003A20002073A7
:1005300065713D00696E6A65637465642066617506
:100540006C743A206E756C6C6465726566006869DF
:100550006C5F666978747572650065727200696EA9
:100560006A6563746564206661756C743A20756EA3
:10057000616C69676E656400696E6A656374656461
:10058000206661756C743A20756E6D61707065647B
:1005900020726561640066697874757265207265A1
:1005A00061647900696E660073616D706C652072BC
:1005B00061773D307830343130207363616C65642D
:1005C0003D313034300073656E736F725F647276E4
:1005D000006462670073616D706C65206F757420D4
:1005E0006F662072616E67652C20636C616D706947
:1005F0006E670077726E0063726173683A6E756C35
:100600006C64657265660063726173683A756E61E9
:100610006C69676E65640063726173683A756E64D5
:100620006566696E656400696E6A656374656420F9
:100630006661756C743A20756E646566696E656492
:1006400020696E737472756374696F6E0063726192
:1006500073683A62616461646472006D61726B65B3
:1006600072006D61726B65722063616C6C65640011
:10067000636F756E7465723F005B30303A30303AAC
:1006800030302E3030302C3030305D203C696E669A
:100690003E2068696C5F666978747572653A20639C
:1006A0006F756E7465723D00627572737400627569
:1006B000727374206C696E6500756E6B6E6F776E09
:1006C00020636F6D6D616E6400756E6B6E6F776E1B
:1006D0002063726173682072657175657374006858
:1006E00065617274626561740053454747455220E5
:0D06F000525454005465726D696E616C00C7
:0400000300000505EF
:00000001FF
