:100000000000042001050000B9000000B900000054
:10001000B9000000B9000000B9000000064A516AAA
:1000200010B54B1C946AC3F30C039C421EBF034CD7
:100030005362605410BD00BF00000020E0000020AB
:1000400010B5441E14F8010F00B910BDFFF7E6FF0C
:10005000F8E770B50A250446B0FBF5F6B6FBF5F0F7
:1000600005FB10603030C0B2FFF7D8FF05FB16402B
:100070003030BDE87040C0B2FFF7D0BF044B032260
:100080001A60044B02F14142A2F590521A60704787
:10009000D4000020D8000020024B02221A60FFF793
:1000A000EDBF00BFD4000020024B01221A60FFF711
:1000B000F3BF00BFD4000020FEE77FB528B9302091
:1000C00004B0BDE87040FFF7A9BF01AB00241E4695
:1000D0000A25B0FBF5F105FB1102303203F8012BC4
:1000E0000246092A04F101040846F2D8013C305DB9
:1000F000FFF794FF002CF9D104B070BD0749013817
:1001000011F8013B10F8012F03B11AB99B1A58429C
:10011000584170479342F3D0002070478C00002074
:100120002DE9F84FDFF8D49080465B200F469246C9
:10013000D9F80040FFF772FF4FF46160B4FBF0F0B4
:100140003C25FFF786FF3A20FFF768FFB4FBF5F682
:10015000B6FBF5F005FB1060FFF77BFF3A20FFF7D9
:100160005DFF05FB1640FFF774FF2E20FFF756FFDB
:10017000C4EBC40B4FF47A736426BBFBF3F203FBAE
:1001800012BBBBFBF6F03030C0B2FFF747FF58465A
:10019000FFF75FFF0D252C20FFF740FF65434FF46D
:1001A0007A73B5FBF3F203FB1255B5FBF6F6303666
:1001B000F0B2FFF733FF2846FFF74BFF1048FFF779
:1001C0003FFF4046FFF73CFF0E48FFF739FF384638
:1001D000FFF736FF0C48FFF733FF5046FFF730FFBD
:1001E0000A48FFF72DFF2046FFF767FF01340A207A
:1001F000FFF714FFC9F80040BDE8F88FDC000020CD
:100200002005000024050000270500002A05000045
:1002100008B5044A04490548FFF782FF00231B6024
:10022000FFDE00BF300500004A0500005605000053
:1002300008B50A4A0A490B48FFF772FF4FF0E0225F
:10024000D2F8143D43F00803C2F8143DBFF34F8FBA
:10025000054B0122C3F8012008BD00BF5A0500006C
:100260004A050000560500000010002010B5044AA1
:1002700004490548FFF754FFBDE81040034B1847F9
:10028000740500004A05000056050000010000F05A
:10029000024B034A1A60FFF707BF00BFD8000020D7
:1002A000EFBEADDE2DE9F84F744C754A754E012353
:1002B00023616361744BA261E3614FF400532362D5
:1002C00000236362A362E362226340226663A26347
:1002D000E3631A4623646364E2540133102BFBD1B9
:1002E0006A49002311F8012B002A29D1684A69497B
:1002F0006948DFF8A881FFF713FF694A69496A482E
:10030000FFF70EFF694A67496948FFF709FF694F20
:10031000694D3B6801333B60226CE36B9A4212D11A
:10032000664A1368002B00F08D8013680021013BA2
:100330001160032B00F29C80DFE803F01A82909793
:10034000E2540133CEE7236CF25C236C013303F0FB
:100350003F030A2A2364D8F8003001D00D2A68D15F
:10036000002BD9D000225648EA54FFF7C7FE08B147
:10037000FFF74EFF5348FFF7C1FE28B1FFF758FFC4
:100380000023C8F80030C7E74F48FFF7B7FE30B189
:100390004E4A40494E48FFF7C3FEADDEF0E74D48F8
:1003A000FFF7ACFE10B1FFF761FFE9E74A48FFF73E
:1003B000A5FE38B1FFF76CFF484A36493648FFF7CB
:1003C000AFFEDDE74648FFF799FE48B14548FFF725
:1003D00037FE3868FFF771FE0A20FFF71FFECFE7F0
:1003E0002B78652B0DD16B78632B0AD1AB78682BFA
:1003F00007D1EB786F2B04D12B793A2B01D13A4AF4
:10040000DBE73A48FFF77AFE78B1394ADFF8DCB02B
:10041000DFF894A04FF0640959465046FFF780FE7C
:10042000B9F10109324AF7D1AAE7324A19492048FD
:10043000C5E73E2B9EBF591CEA54C8F800106BE775
:10044000FFF7F6FE3B68C3F31203002B7FF45FAFA8
:10045000294A10491048FFF763FE58E71B4A0D4927
:100460001B48FFF75DFEADDEECE7FFF7FFFEE9E7B7
:10047000224A08490E48FFF753FEE3E70000002038
:10048000EB06000048000020E0000020E00600002D
:100490008D0500004A0500009B0500008800002033
:1004A0009F050000BD050000C8050000CC05000048
:1004B000EA050000CC0000208C000020D0000020C5
:1004C000EE050000FE0500000E0600001E060000FE
:1004D00056050000440600005206000059060000C0
:1004E0006706000070060000910000209F060000D3
:1004F000A5060000B0060000D6060000C0060000F9
:1005000008B5054A054B0021934201D3FFF7CAFE07
:1005100043F8041BF8E700BFE020002000000020A3
:100520005D203C003E20003A2000207365713D00B4
:10053000696E6A6563746564206661756C743A20DF
:100540006E756C6C64657265660068696C5F66697F
:1005500078747572650065727200696E6A6563749D
:100560006564206661756C743A20756E616C6967AC
:100570006E656400696E6A656374656420666175A2
:100580006C743A20626164206A756D7000666978E7
:100590007475726520726561647900696E660073B6
:1005A000616D706C65207261773D30783034313028
:1005B000207363616C65643D313034300073656E67
:1005C000736F725F647276006462670073616D704E
:1005D0006C65206F7574206F662072616E67652C84
:1005E00020636C616D70696E670077726E00637274
:1005F0006173683A6E756C6C6465726566006372EF
:100600006173683A756E616C69676E6564006372E8
:100610006173683A756E646566696E656400696EDB
:100620006A6563746564206661756C743A20756EE2
:10063000646566696E656420696E7374727563744F
:10064000696F6E0063726173683A626164616464C9
:1006500072006D61726B6572006D61726B65722004
:1006600063616C6C656400636F756E7465723F00E6
:100670005B30303A30303A30302E3030302C303041
:10068000305D203C696E663E2068696C5F66697803
:10069000747572653A20636F756E7465723D0062A1
:1006A00075727374006275727374206C696E650084
:1006B000756E6B6E6F776E20636F6D6D616E64002B
:1006C000756E6B6E6F776E206372617368207265F2
:1006D0007175657374006865617274626561740038
:1006E00053454747455220525454005465726D6932
:0406F0006E616C00CB
:0400000300000501F3
:00000001FF
