:100000000000042085040000B9000000B9000000D1
:10001000B9000000B9000000B9000000064A516AAA
:1000200010B54B1C946AC3F30A039C421EBF034CD9
:100030005362605410BD00BF00000020DC000020AF
:1000400010B5441E14F8010F00B910BDFFF7E6FF0C
:10005000F8E770B50A250446B0FBF5F6B6FBF5F0F7
:1000600005FB10603030C0B2FFF7D8FF05FB16402B
:100070003030BDE87040C0B2FFF7D0BF044B032260
:100080001A60044B02F14142A2F590521A60704787
:10009000D0000020D4000020024B02221A60FFF79B
:1000A000EDBF00BFD0000020024B01221A60FFF715
:1000B000F3BF00BFD0000020FEE77FB528B9302095
:1000C00004B0BDE87040FFF7A9BF01AB00241E4695
:1000D0000A25B0FBF5F105FB1102303203F8012BC4
:1000E0000246092A04F101040846F2D8013C305DB9
:1000F000FFF794FF002CF9D104B070BD0749013817
:1001000011F8013B10F8012F03B11AB99B1A58429C
:10011000584170479342F3D0002070478C00002074
:100120002DE9F84FDFF8D49080465B200F469246C9
:10013000D9F80040FFF772FF4FF46160B4FBF0F0B4
:100140003C25FFF786FF3A20FFF768FFB4FBF5F682
:10015000B6FBF5F005FB1060FFF77BFF3A20FFF7D9
:100160005DFF05FB1640FFF774FF2E20FFF756FFDB
:10017000C4EBC40B4FF47A736426BBFBF3F203FBAE
:1001800012BBBBFBF6F03030C0B2FFF747FF58465A
:10019000FFF75FFF0D252C20FFF740FF65434FF46D
:1001A0007A73B5FBF3F203FB1255B5FBF6F6303666
:1001B000F0B2FFF733FF2846FFF74BFF1048FFF779
:1001C0003FFF4046FFF73CFF0E48FFF739FF384638
:1001D000FFF736FF0C48FFF733FF5046FFF730FFBD
:1001E0000A48FFF72DFF2046FFF767FF01340A207A
:1001F000FFF714FFC9F80040BDE8F88FD8000020D1
:10020000A4040000A8040000AB040000AE04000039
:10021000024B034A1A60FFF747BF00BFD40000201B
:10022000EFBEADDE744C754E012323612DE9874886
:100230006361734A734BA261E3614FF4006323620D
:1002400000236362A362E362226340226663A263C7
:10025000E3631A4623646364E2540133102BFBD139
:100260006949002311F8012B22BB684A6849694893
:10027000DFF8A481FFF754FF684A69496948FFF72E
:100280004FFF694A66496948FFF74AFF684F694D61
:100290003B6801333B60226CE36B9A420DD13B68B3
:1002A000C3F31203002BF1D1634A59495948FFF7B0
:1002B00037FFEBE7E2540133D4E7236CF25C236CA5
:1002C000013303F03F030A2A2364D8F8003002D038
:1002D0000D2A40F08A80002BDDD04FF000095748EE
:1002E00005F80390FFF70AFF38B1554A48495548C9
:1002F000FFF716FFC9F80090FFDE5348FFF7FEFE38
:10030000B0B1524A42494F48FFF70AFF4FF0E0228E
:10031000D2F8143D43F00803C2F8143DBFF34F8FE9
:100320004B4B0122C3F801200023C8F80030B2E78C
:100330004848FFF7E3FE30B1474A35494148FFF7E7
:10034000EFFEADDEF0E74548FFF7D8FE50B1444A76
:100350002F493C48FFF7E4FE4FF070431B680193C0
:10036000019BE1E73F48FFF7C9FE38B1FFF750FFB7
:100370003D4A27492748FFF7D3FED5E73B48FFF71B
:10038000BDFE48B13A48FFF75BFE3868FFF795FEBF
:100390000A20FFF743FEC7E72B78652B0DD16B785A
:1003A000632B0AD1AB78682B07D1EB786F2B04D184
:1003B0002B793A2B01D12F4ADBE72F48FFF79EFE1E
:1003C00078B12E4ADFF8B0B0DFF858A04FF06409DA
:1003D00059465046FFF7A4FEB9F10109274AF7D163
:1003E000A2E7274A0A491148C5E73E2B9EBF591C80
:1003F000EA54C8F800104EE7000000204800002032
:100400005E060000DC00002053060000B40400007B
:10041000C2040000CE04000088000020D2040000C6
:10042000F0040000FB040000FF0400001D050000B4
:10043000CC0000208C0000204906000021050000AF
:10044000310500004B0500004F0500005F0500006E
:10045000001000207905000089050000AF050000AC
:10046000BD050000DB050000E2050000F00500000E
:10047000F905000091000020280600002E0600006B
:100480003906000008B5054A054B0021934201D307
:10049000FFF7C8FE43F8041BF8E700BFDC080020A4
:1004A000000000205D203C003E20003A2000207328
:1004B00065713D0066697874757265207265616466
:1004C000790068696C5F6669787475726500696E39
:1004D000660073616D706C65207261773D307830B5
:1004E000343130207363616C65643D3130343000E9
:1004F00073656E736F725F64727600646267007317
:10050000616D706C65206F7574206F662072616E0E
:1005100067652C20636C616D70696E670077726E21
:100520000063726173683A6E756C6C6465726566BF
:1005300000696E6A6563746564206661756C743AFF
:10054000206E756C6C64657265660065727200631E
:10055000726173683A756E616C69676E6564006993
:100560006E6A6563746564206661756C743A2075A3
:100570006E616C69676E65640063726173683A7579
:100580006E646566696E656400696E6A656374654C
:1005900064206661756C743A20756E646566696E78
:1005A000656420696E737472756374696F6E00633D
:1005B000726173683A6261646164647200696E6A50
:1005C0006563746564206661756C743A20756E6D40
:1005D00061707065642072656164006D61726B6545
:1005E00072006D61726B65722063616C6C65640092
:1005F000636F756E7465723F005B30303A30303A2D
:1006000030302E3030302C3030305D203C696E661A
:100610003E2068696C5F666978747572653A20631C
:100620006F756E7465723D006275727374006275E9
:10063000727374206C696E6500756E6B6E6F776E89
:1006400020636F6D6D616E640068656172746265D0
:100650006174005345474745522052545400546535
:07066000726D696E616C0010
:040000030000048570
:00000001FF
